:100000000C94E4000C940C010C940C010C940C0165
:100010000C940C010C940C010C940C010C940C012C
:100020000C940C010C940C010C940C010C940C011C
:100030000C940C010C940C010C940C010C940C010C
:100040000C94A4280C940C010C9472280C944C2849
:100050000C940C010C940C010C940C010C940C01EC
:100060000C94EE280C940C0100407A10F35A00A076
:10007000724E18090010A5D4E80000E87648170071
:1000800000E40B54020000CA9A3B000000E1F505B1
:10009000000080969800000040420F000000A086FB
:1000A00001000000102700000000E803000000002D
:1000B0006400000000000A000000000001000000D1
:1000C00000002C76D888DC674F0823DFC1DFAE59EB
:1000D000E1B1B796E5E3E453C63AE651997696E87E
:1000E000E6C28426EB898C9B62ED407C6FFCEFBC02
:1000F0009C9F40F2BAA56FA5F490055A2AF75C932D
:100100006B6CF9676DC11BFCE0E40D47FEF520E662
:10011000B500D0ED902E0300943577050080841E45
:10012000080000204E0A000000C80C333333330FA0
:10013000986E12831141EF8D2114893BE65516CF3D
:10014000FEE6DB18D1844B381BF77C1D901DA4BB49
:10015000E424203284725E228100C9F124ECA1E5FE
:100160003D2700000000240027002A0000000000B6
:10017000250028002B000000000023002600290095
:10018000040404040404040402020202020203033D
:100190000303030301020408102040800102040845
:1001A00010200102040810200000000800020100D5
:1001B00000030407000000000000000000044D518F
:1001C000545404000D2A0C3111241FBECFEFD8E087
:1001D000DEBFCDBF12E0A0E0B1E0EEE5F7E702C080
:1001E00005900D92AE39B107D9F724E0AEE9B2E03F
:1001F00001C01D92A03FB207E1F710E0C3EED0E0CE
:1002000004C02197FE010E94EC36C23ED107C9F717
:100210000E94B02B0C94A23B0C940000DC011496BD
:100220002D913C911597232B41F0ED91FC9181E0AC
:100230009081992319F080E0089581E0089520E3EA
:10024000FC0120833296862F82958F706F706A3002
:1002500030F4605D6293682F8111F5CF0895695C79
:10026000F9CF08950895AF92BF92CF92DF92EF92A7
:10027000FF920F931F93CF93DF936C017B018B0150
:10028000040F151FEB015E01AE18BF08C017D107A0
:1002900059F06991D601ED91FC910190F081E02D2A
:1002A000C6010995892B79F7C501DF91CF911F917F
:1002B0000F91FF90EF90DF90CF90BF90AF90089597
:1002C000FC01538D448D252F30E0842F90E0821B5C
:1002D000930B541710F0CF96089501970895FC01E1
:1002E000918D828D981761F0A28DAE0FBF2FB11D39
:1002F0005D968C91928D9F5F9F73928F90E0089591
:100300008FEF9FEF0895FC01918D828D981731F04A
:10031000828DE80FF11D858D90E008958FEF9FEF9E
:100320000895FC01918D228D892F90E0805C9F4F74
:10033000821B91098F739927089587EC93E00E949F
:10034000910121E0892B09F420E0822F089580E0BB
:1003500090E0892B29F00E949D0181110C940000EE
:100360000895FC01A48DA80FB92FB11DA35ABF4F4A
:100370002C91848D90E001968F739927848FA689A4
:10038000B7892C93A089B1898C91837080648C93F8
:10039000938D848D981306C00288F389E02D8081A7
:1003A0008F7D80830895EF92FF920F931F93CF93D9
:1003B000DF93EC0181E0888F9B8D8C8D98131AC0A0
:1003C000E889F989808185FF15C09FB7F894EE8987
:1003D000FF896083E889F9898081837080648083E4
:1003E0009FBF81E090E0DF91CF911F910F91FF902F
:1003F000EF900895F62E0B8D10E00F5F1F4F0F73D7
:100400001127E02E8C8D8E110CC00FB607FCFACF91
:10041000E889F989808185FFF5CFCE010E94B1017D
:10042000F1CFEB8DEC0FFD2FF11DE35AFF4FF08262
:100430009FB7F8940B8FEA89FB8980818062CFCFC8
:10044000CF93DF93EC01888D8823B9F0AA89BB890B
:10045000E889F9898C9185FD03C0808186FD0DC0F6
:100460000FB607FCF7CF8C9185FFF2CF808185FF17
:10047000EDCFCE010E94B101E9CFDF91CF91089578
:10048000833081F028F4813099F08230A9F008950A
:100490008730A9F08830C9F08430B1F480918000B1
:1004A0008F7D03C0809180008F77809380000895B6
:1004B00084B58F7784BD089584B58F7DFBCF8091FF
:1004C000B0008F778093B00008958091B0008F7D49
:1004D000F9CF1F93CF93DF93282F30E0F901E85530
:1004E000FE4F8491F901EC56FE4FD491F901E0588A
:1004F000FE4FC491CC23A9F0162F81110E94400217
:10050000EC2FF0E0EE0FFF1FE459FE4FA591B491E0
:100510008FB7F894EC91111108C0D095DE23DC93CD
:100520008FBFDF91CF911F910895DE2BF8CFCF932E
:10053000DF9390E0FC01EC56FE4F249180589E4FD3
:10054000FC0184918823D1F090E0880F991FFC0171
:10055000EE59FE4FA591B491FC01E459FE4FC591AF
:10056000D49161110EC09FB7F8948C91E22FE09561
:100570008E238C932881E223E8839FBFDF91CF9164
:1005800008958FB7F894EC91E22BEC938FBFF6CFE0
:100590003FB7F8948091090390910A03A0910B034F
:1005A000B0910C0326B5A89B05C02F3F19F001960A
:1005B000A11DB11D3FBFBA2FA92F982F8827BC01BD
:1005C000CD01620F711D811D911D42E0660F771FE5
:1005D000881F991F4A95D1F708958F929F92AF92E5
:1005E000BF92CF92DF92EF92FF924B015C010E948B
:1005F000C8026B017C010E94C8026C197D098E093A
:100600009F09683E734081059105A8F321E0821A95
:100610009108A108B10888EEC80E83E0D81EE11C3D
:10062000F11C81149104A104B10429F7FF90EF900B
:10063000DF90CF90BF90AF909F908F9008952FB78D
:10064000F8946091050370910603809107039091DF
:1006500008032FBF089561E0809103030C946902A1
:1006600060E0809103030C94690208958EBD000040
:100670000DB407FEFDCF8EB508958CBD9DBD0895C8
:10068000DF92EF92FF920F931F93CF93DF93D82FB8
:10069000D92EC62F7A018901809164049091650456
:1006A0000E943D030E9430038D2D0E9436038D2F42
:1006B0000E9436038C2F0E943603E701E00EF11EE4
:1006C00080E00E9436038993EC16FD06C9F70E946C
:1006D0002B03C801DF91CF911F910F91FF90EF90F5
:1006E000DF900895CF93DF93D82FC62F80916404B5
:1006F000909165040E943D030E94300380E00E94B7
:1007000036038D2F0E9436038C2F0E94360380E023
:100710000E943603C82F0E942B038C2FDF91CF91AC
:100720000895DF92EF92FF920F931F93CF93DF9381
:10073000D82FD92EC62F7A01890180916404909117
:1007400065040E943D030E9430038D2D0E943603F4
:100750008D2F0E9436038C2F0E943603E701E00E96
:10076000F11ECE15DF0521F089910E943603F9CFE5
:100770000E942B03C801DF91CF911F910F91FF9031
:10078000EF90DF9008951F93CF93DF93182FD62F0C
:10079000C42F80916404909165040E943D030E94DF
:1007A000300380E00E943603812F0E9436038D2F94
:1007B0000E9436038C2F0E9436030E942B0381E097
:1007C000DF91CF911F9108959B018295880F807EC4
:1007D0006CE0680FC9010C94C303CF93DF93EC0165
:1007E000898D9A8D892B41F0E881F9810284F38506
:1007F000E02DCE010995F4CFDF91CF910895CF93ED
:10080000DF931F92CDB7DEB76983DC01ED91FC91D8
:100810000280F381E02D41E050E0BE016F5F7F4F29
:1008200009950F90DF91CF9108951F93CF93DF9398
:10083000FB01DC0158961C921E92579722812111D0
:1008400009C02381211106C02481211103C0258103
:10085000222339F14115510521F1EA01DC011C96F1
:100860001C91AF014E5F5F4F612F6295660F607EF6
:10087000645F24E030E08CE090E00E9491034D2F13
:1008800060E170E0812F0E94E4034C2F61E170E091
:10089000812F0E94E40381E090E0DF91CF911F91CE
:1008A000089590E080E0F9CFFC01818D928D08954C
:1008B000FC018589968908952AEB31E0FC0131839A
:1008C0002083FB014189528963897489FC01428339
:1008D000538364837583089580E00895FC019485B3
:1008E000FB018485981303C081E0983009F480E00F
:1008F000089521E0FC018485883009F420E0822FEE
:1009000008950895CF93DF931F92CDB7DEB7698323
:10091000DC01ED91FC910280F381E02D41E050E09B
:10092000BE016F5F7F4F09950F90DF91CF910895C2
:10093000DC01ED91FC91028CF38DE02D099591E0A5
:10094000892708959B018295880F807E68E0680F53
:10095000C9010C947203CF93C82F462F61E070E059
:100960000E94E40361E070E08C2F0E94A2048111D8
:10097000F9CFCF910895CF93C82F60E170E00E9426
:10098000AB044FEF62E070E08C2FCF910C94E40346
:100990000F931F93CF93DF93C82FD62F8A010E9406
:1009A000BB044D2F70E060E08C2F0E94E403011522
:1009B0001105B9F0412F64E070E08C2F0E94E40330
:1009C000402F65E070E08C2F0E94E40361E070E04E
:1009D0008C2F0E94AB0481E0DF91CF911F910F918A
:1009E00008950091C5031091C6030F5F1F4F109328
:1009F000C6030093C503DECFCF93DF93EC018C8554
:100A0000883021F00E94BB0488E08C87DF91CF9171
:100A10000895CF92DF92EF92FF920F931F93CF939F
:100A2000DF93D82E7B018A01C22E68E270E00E941B
:100A3000A204C82FD0E0DC2FCC2769E270E08D2D16
:100A40000E94A204C80FD11D6D2D6295660F607EB5
:100A5000685E9801A701CE010E944003C11016C034
:100A6000C00FD11F4D2F68E270E08D2D0E94E4036E
:100A70004C2F69E270E08D2DDF91CF911F910F9186
:100A8000FF90EF90DF90CF900C94E403DF91CF9133
:100A90001F910F91FF90EF90DF90CF9008950F93EB
:100AA0001F93CF93DF931F92CDB7DEB78C01DC018C
:100AB000ED91FC910084F185E02D0995892B91F051
:100AC00021E041E050E0BE016F5F7F4FF801848577
:100AD0000E940905898190E00F90DF91CF911F91CD
:100AE0000F9108958FEF9FEFF7CFCF93DF931F9272
:100AF000CDB7DEB7FC01218D328D8FEF9FEF232B19
:100B000059F021E041E050E0BE016F5F7F4F8485E6
:100B10000E940905898190E00F90DF91CF9108959F
:100B2000BF92CF92DF92EF92FF920F931F93CF93DA
:100B3000DF93B82E6B017A01890164E270E00E94B4
:100B4000A204C82F65E270E08B2D0E94A204D0E0C1
:100B5000DC2FCC278C0D9D2D911DC80FD91F6B2D1F
:100B60006295660F607E6C5E9801A701CE010E94BF
:100B70009103C00FD11F4D2F64E270E08B2D0E94B6
:100B8000E4034C2F65E270E08B2DDF91CF911F9134
:100B90000F91FF90EF90DF90CF90BF900C94E40303
:100BA0001F93CF93DF93182F66E270E00E94A20498
:100BB000C82FD0E0DC2FCC2767E270E0812F0E94A5
:100BC000A2048C0F9D2F911DDF91CF911F9108954D
:100BD000FF920F931F93CF93DF93F82E10E000E066
:100BE0008F2D0E94D005EC01892B21F08F2D0E94C2
:100BF000D0058C01C017D10799F7CE01DF91CF91B5
:100C00001F910F91FF900895FC018485883011F0A9
:100C10000C94E80590E080E008951F93CF93DF9354
:100C2000182F60E270E00E94A204C82FD0E0DC2FF1
:100C3000CC2761E270E0812F0E94A2048C0F9D2FCF
:100C4000911DDF91CF911F910895FF920F931F93F4
:100C5000CF93DF93F82E10E000E08F2D0E940D0659
:100C6000EC01892B21F08F2D0E940D068C01C017FD
:100C7000D10799F7CE01DF91CF911F910F91FF908E
:100C80000895AF92BF92CF92DF92FF920F931F937E
:100C9000CF93DF938C015B01EA01FC01C788D08C04
:100CA000F4848F2D0E9425068C179D0720F48F2D2C
:100CB0000E942506EC019E01A501B6018F2D0E9420
:100CC0009005F8018789908D8C0F9D1F908F878BE1
:100CD000CE01DF91CF911F910F91FF90DF90CF90C8
:100CE000BF90AF900895FC018485883021F063E0C7
:100CF00070E00C94A20480E00895CF93DF93FC0190
:100D000024852830D9F0EC010E947306843189F0E3
:100D1000882379F0883169F021E08C3159F4E88139
:100D2000F9810084F185E02DCE01099521E0892B20
:100D300009F420E0822FDF91CF91089580E0FBCF6E
:100D4000CF92DF92EF92FF92CF93DF93EC018C85ED
:100D5000883049F168E070E00E94AB040E941F03F4
:100D60006B017C01CE010E947306882391F00E94E2
:100D70001F036C197D098E099F09683E7340810528
:100D8000910538F461E070E080E090E00E94ED02AF
:100D9000E9CFCE010E947306882319F08C850E944A
:100DA000BB0488E08C87DF91CF91FF90EF90DF90BC
:100DB000CF900895CF92DF92EF92FF921F93CF933F
:100DC000DF93182F6B017A010E94E805EC01009770
:100DD000D9F463E070E0812F0E94A204843159F0BD
:100DE000882349F0C1E0D0E08C3111F4D0E0C0E0BC
:100DF000D195C195D109CE01DF91CF911F91FF907F
:100E0000EF90DF90CF900895E816F9060CF4E70113
:100E10001C161D0684F720E0AE01B601812F0E944A
:100E2000090560E470E0812F0E94AB04E4CFCF930A
:100E3000DF93FC01218D328D2115310529F48FEFCF
:100E40009FEFDF91CF910895EC01848542175307FE
:100E500008F0A9010E94DA061816190684F7298DF0
:100E60003A8D281B390B3A8F298FEBCF0F931F93A5
:100E7000CF93DF931F92CDB7DEB7FC01218D328D6A
:100E8000232B41F48FEF9FEF0F90DF91CF911F91B4
:100E90000F9108958C0141E050E0BE016F5F7F4FDC
:100EA000FC0184850E94DA06181619065CF7F80121
:100EB000818D928D0197928F818F898190E0E4CF0F
:100EC000FC0184850C94DA06CF93DF931F92CDB793
:100ED000DEB741E050E0BE016F5F7F4FFC018485CB
:100EE0000E94DA061816190634F4898190E00F90F2
:100EF000DF91CF9108958FEF9FEFF9CFCF93FC0152
:100F0000C48560E270E08C2F0E94AB0462E070E068
:100F10008C2F0E94A20484FD11C062E070E08C2F2F
:100F20000E94A20483FFF2CF48E162E070E08C2FC0
:100F30000E94E40390E080E0CF91089540E162E0F8
:100F400070E08C2F0E94E40381E090E0F5CFEF92F7
:100F5000FF921F93CF93DF93FC012485283039F053
:100F600080E0DF91CF911F91FF90EF9008957B017A
:100F7000EC0110E063E070E0812F0E94A204811177
:100F80000EC01C878C85883059F3FE86ED861A8E3C
:100F9000198EA70162E00E94C80481E0E2CF883187
:100FA00081F31F5F183031F7EDCF8F929F92AF9290
:100FB000BF92CF92DF92EF92FF920F931F93CF9346
:100FC0006C015B017A01FC01C485C830A1F481E0A9
:100FD00090E0F60193838283F12CE12CC701CF913D
:100FE0001F910F91FF90EF90DF90CF90BF90AF9047
:100FF0009F908F9008958A014130584010F000E092
:1010000018E08C2F0E9425064C0163E070E08C2FC5
:101010000E94A204873111F08C3109F580169106E7
:1010200080F39801A50170E060E08C2F0E9490058C
:1010300060E270E08C2F0E94AB0462E070E08C2FC5
:101040000E94A20484FD0EC063E070E08C2F0E9419
:10105000A2048111F2CF8C2F0E94BB04B8CF10E004
:1010600000E0DFCF40E162E070E08C2F0E94E403FB
:10107000012B09F0B3CFABCFDF92EF92FF920F932A
:101080001F93CF93DF93FC012485283051F090E02B
:1010900080E0DF91CF911F910F91FF90EF90DF9053
:1010A00008957A01EB018C01D12C63E070E08D2D65
:1010B0000E94A204811128C0F801D486F801848519
:1010C000883029F320910001309101012F5F3F4FBB
:1010D00019F13093010120930001409100015091DA
:1010E000010161E00E94C8048A818F3FC1F48B81B5
:1010F0008F3F01F58C818F3FE9F48D818F3FD1F4D3
:1011000088E0F8018487C3CF8B7F8831A9F2D3941C
:10111000F8E0DF12CACFD2CF20E034E0DACF81117D
:1011200009C08B81811106C08C81811103C08D8122
:10113000882331F3E114F10419F3F801D484AE01EA
:101140004E5F5F4F6D2D6295660F607E645F24E099
:1011500030E08CE090E00E9491034F2D60E170E060
:101160008D2D0E94E4034E2D61E170E08D2D0E94D3
:10117000E40364E070E08D2D0E94AB04C8010E947E
:101180007306873161F061E070E080E090E00E94DA
:10119000ED02C8010E9473068111F0CFB1CF81E04A
:1011A00090E077CFDC01ED91FC91048CF58DE02D82
:1011B0000994CF93CFB7F89480910203811127C08F
:1011C000EAE8F1E08491EEE9F1E09491E82FF0E0B3
:1011D000EE0FFF1FEE59FE4FA591B491EC91E9235C
:1011E00021F461E08AE00E94690261E08AE00E94E5
:1011F00097028CB580618CBD8CB580648CBD61E03C
:101200008DE00E94970261E08BE00E94970280913E
:1012100002038F5F80930203CFBFCF910895209187
:10122000DF02260F3327331F21323105ECF42091E2
:101230009B03FC0190E080E0243069F082E0089597
:10124000A091DF022191AC0141545D4FA40FB52F55
:10125000B11D2C930196861798F38091DF02680FD9
:101260006093DF0280E0089581E0089510929B036F
:1012700081E080939A031092750361E082E10E94FD
:10128000690261E083E10E946902E9EBF0E080819C
:101290008E7F808380818D7F808388E48093B800F7
:1012A00085E48093BC000895CF93DF9391E0909301
:1012B000BE028823B9F0C091B800D091BA008091E5
:1012C000BC008A7B8093BC0060E082E10E946902DE
:1012D00060E083E10E9469020E943609D093BA005F
:1012E000C093B800DF91CF9108958F929F92AF92F3
:1012F000BF92CF92DF92EF92FF920F931F93CF9303
:10130000DF93D091C403D13208F0D7C0182FC09119
:10131000C3030E94C8026B017C0180919B03811171
:101320006BC082E080939B0310939A038FEF8093AE
:10133000990310929803D0939703A3EAB3E0E7E7E9
:10134000F3E080E0D81391C0109276038091760389
:10135000CC0FC82BC093760380917503813009F0C0
:1013600088C0109275030E94C8026B017C018091B5
:1013700076038093BB0080919D0390919E03A09182
:101380009F03B091A003892B8A2B8B2BA1F00E9485
:10139000C80200919D0310919E0320919F033091FC
:1013A000A0036C197D098E099F09061717072807E6
:1013B000390708F442C08091BC0083FDD8CF85EC8A
:1013C0008093BC000E94C8026B017C0180919B034A
:1013D000823009F450C0809199038F3F09F46FC0A7
:1013E00080919903803209F46CC080919903803315
:1013F00009F469C084E026C080919D0390919E030A
:10140000A0919F03B091A003892B8A2B8B2B09F409
:1014100084CF0E94C80280909D0390909E03A0906C
:101420009F03B090A0036C197D098E099F09861651
:101430009706A806B90608F070CF80919C030E9419
:10144000540985E01092A2031092C4031092A103E4
:10145000DF91CF911F910F91FF90EF90DF90CF9090
:10146000BF90AF909F908F9008959D9191938F5FC3
:1014700069CF85EEA5CF80919D0390919E03A091A9
:101480009F03B091A003892B8A2B8B2B09F49ECF4D
:101490000E94C80200919D0310919E0320919F031A
:1014A0003091A0036C197D098E099F090617170753
:1014B0002807390708F08ACFC0CF81E0C3CF80E08A
:1014C000C1CF82E0BFCF83E0BDCF0895E09112038A
:1014D00080911103E81730F4F0E0E256FD4F80816F
:1014E00090E008958FEF9FEF0895909112038091FF
:1014F00011032FEF3FEF981748F4E92FF0E0E25681
:10150000FD4F208130E09F5F90931203C901089541
:101510008091110390911203891B990B0895CF922A
:10152000DF92EF92FF920F931F93CF93DF937C0193
:10153000CB018A012091A103222389F0EB016B01E9
:10154000C40ED51ECC15DD0569F06991D701ED916A
:10155000FC910190F081E02DC7010995F3CF642F34
:101560000E940F09C801DF91CF911F910F91FF9049
:10157000EF90DF90CF900895CF93DF931F92CDB778
:10158000DEB769832091A1032223F9F02091C403DF
:10159000203258F021E030E0FC013383228390E0D8
:1015A00080E00F90DF91CF9108958091A203E82F02
:1015B000F0E0ED55FC4F998190838F5F8093A203FB
:1015C0008093C40381E090E0ECCF61E0CE0101960E
:1015D0000E940F09F7CF90E080E00895CF93DF934A
:1015E00000D000D000D0CDB7DEB749835A836B83DB
:1015F0007C838D839E838091DD0482FF18C080FFF1
:1016000016C049815A816D817E81E091CC04F091B0
:10161000CD040280F381E02D8CEC94E026960FB689
:10162000F894DEBF0FBECDBFDF91CF91099426960F
:101630000FB6F894DEBF0FBECDBFDF91CF910895F6
:10164000682F87E00C946902682F85E00C9469028A
:10165000682F84E00C946902682F82E00C94690280
:10166000FC014730510561F4D9012D913C9132279D
:101670002327322781E0408951892417350709F053
:1016800080E0089521E0FC018289938986179707FD
:1016900009F420E0822F089581E00895FC0146308E
:1016A000510561F4D9012D913C913227232732272E
:1016B00081E0408951892417350709F080E00895B9
:1016C000FC014930510561F4D9012D913C9132273B
:1016D0002327322781E0408951892417350709F0F3
:1016E00080E008958F929F92AF92BF92CF92DF9247
:1016F000EF92FF920F931F93CF93DF9300D000D010
:1017000000D0CDB7DEB78C010E941F036B017C01B6
:10171000F80180859185A285B38546015701881A15
:10172000990AAA0ABB0A2485358546855785A8EEFD
:10173000B3E00E948D35681579058A059B0528F56B
:101740000280F381E02D808188608083D801129629
:101750008C91129713962C91139714969C91149731
:1017600015966C91159716965C91169717963C9165
:10177000492F5B83562F6B81732F922F0E94EE0AA5
:10178000F801C086D186E286F38626960FB6F894D5
:10179000DEBF0FBECDBFDF91CF911F910F91FF90A4
:1017A000EF90DF90CF90BF90AF909F908F90089573
:1017B00080E0089581E0089508954F925F926F92BE
:1017C0007F928F929F92AF92BF92FF920F931F933F
:1017D000CF93DF938C01D62F81E08093A10387E71D
:1017E0008093C3031092A2031092C403F801608196
:1017F0008DE994E00E94BC0A81E00E947509F82EF0
:101800008111C7C00E94C8024B015C0180919B03FB
:10181000811165C081E080939B0380939A039FEFC1
:1018200090939903109298039D0F90939703809340
:101830007603809176038E6E809376038091750394
:10184000813009F082C0109275030E94C8024B01DA
:101850005C01809176038093BB0080919D03909101
:101860009E03A0919F03B091A003892B8A2B8B2B01
:10187000A1F00E94C80240909D0350909E0360908A
:101880009F037090A003681979098A099B0946167D
:1018900057066806790608F443C08091BC0083FDB2
:1018A000D8CF85EC8093BC000E94C8024B015C013C
:1018B00080919B03813009F44AC080919803CD2F19
:1018C0008D1710F4C0919803A7E7B3E0EEE9F2E0BA
:1018D00080E08C1751F19D9191938F5FFACF8091A9
:1018E0009D0390919E03A0919F03B091A003892B2B
:1018F0008A2B8B2B09F48ACF0E94C80240909D034B
:1019000050909E0360909F037090A003681979091E
:101910008A099B09461657066806790608F076CFAD
:1019200080919C030E945409C0E010921203C0935E
:101930001103DC13FECFC15060F18DE994E00E94E9
:10194000750AF80181938F01F6CF85EEABCF8091B8
:101950009D0390919E03A0919F03B091A003892BBA
:101960008A2B8B2B09F4A4CF0E94C80240909D03C0
:1019700050909E0360909F037090A00368197909AE
:101980008A099B09461657066806790608F090CF23
:10199000C7CF81E0F11080E0DF91CF911F910F91CF
:1019A000FF90BF90AF909F908F907F906F905F90CF
:1019B0004F9008950F931F93CF93DF9300D0CDB72F
:1019C000DEB78B01898362E0CE0101960E94DD0BB8
:1019D000882379F029813A81322723273227F80199
:1019E000318320830F900F90DF91CF911F910F9142
:1019F0000895F80111821082F5CF4F925F926F9295
:101A00007F928F929F92AF92BF92CF92DF92EF928E
:101A1000FF92CF93DF9300D0CDB7DEB78091DF0484
:101A200082958695837009F07AC167E273E08AEA4D
:101A30000E94DA0C882309F4AAC169E273E08CEAF7
:101A40000E94DA0C882309F4A2C16BE273E08EEAEB
:101A50000E94DA0C882309F49AC167E373E080EBF3
:101A60000E94DA0C882309F492C169E373E082EBE7
:101A70000E94DA0C882309F48AC16BE373E084EBDB
:101A80000E94DA0C882309F482C16DE273E086EBD0
:101A90000E94DA0C882309F47AC16FE273E088EBC4
:101AA0000E94DA0C882309F472C161E373E08AEBC7
:101AB0000E94DA0C882309F46AC163E373E08CEBBB
:101AC0000E94DA0C882309F462C165E373E08EEBAF
:101AD0000E94DA0C882309F45AC160912B0370919B
:101AE0002C03072E000C880B990B0E94513420E028
:101AF00030E040EA5BE30E94B0342B013C0160918E
:101B000037037091380390E080E00E944F342FE655
:101B100032E143E053E30E94B0346B017C016091F9
:101B20002D0370912E03072E000C880B990B0E9439
:101B3000513420E030E048EC57E30E94B0344B01D0
:101B40005C016091390370913A0390E080E00E945B
:101B50004F342DEC3CEC4CE454E30E94B0346093E1
:101B60003D0370933E0380933F0390934003609145
:101B70003B0370913C0390E080E00E944F346093FF
:101B80004103709342038093430390934403609115
:101B9000330370913403072E000C880B990B0E94BD
:101BA00051342AE037ED43EA5DE30E94B03460939C
:101BB00045037093460380934703909348036091D5
:101BC000350370913603072E000C880B990B0E9489
:101BD000513420E030E040E253E40E9475366093D7
:101BE000490370934A0380934B0390934C03609195
:101BF000270370912803072E000C880B990B0E9475
:101C0000513460934D0370934E0380934F03909330
:101C100050036091290370912A03072E000C880B52
:101C2000990B0E94513420E030E040EA5CE30E94CE
:101C3000B034609351037093520380935303909395
:101C4000540360912F0370913003072E000C880B12
:101C5000990B0E94513420E030E048E45AE30E949E
:101C6000B034609355037093560380935703909359
:101C7000580320E030E040E057E4C701B6010E947D
:101C8000B0346093590370935A0380935B0390932D
:101C90005C03A7019601C301B2010E94B0346093B6
:101CA0005D0370935E0380935F0390936003A501CF
:101CB0009401C701B6010E94B03460936103709330
:101CC000620380936303909364038CEE91E5A7E134
:101CD000B0E48093650390936603A0936703B09389
:101CE000680380E394E3AEE7BFE3809369039093D6
:101CF0006A03A0936B03B0936C0380E097E5A4E9BB
:101D0000B6E380936D0390936E03A0936F03B0933B
:101D100070038091DF048F7980628093DF0484EF09
:101D200089838EE28A8381E08093A10387E7809391
:101D3000C3031092A2031092C40342E050E0BE011C
:101D40006F5F7F4F8DE994E00E948F0A81E00E94CF
:101D5000750981111CC08091DF048F7980648093A4
:101D6000DF0485E090E0A0E0B0E08093230390934F
:101D70002403A0932503B09326030E941F036093BE
:101D80001F037093200380932103909322030F90ED
:101D90000F90DF91CF91FF90EF90DF90CF90BF90A9
:101DA000AF909F908F907F906F905F904F9008952D
:101DB000FB0101900020E9F73197AF01461B570B5B
:101DC000DC01ED91FC910280F381E02D09948F926A
:101DD0009F92AF92BF92EF92FF920F931F93CF9378
:101DE000DF93CDB7DEB7A1970FB6F894DEBF0FBE75
:101DF000CDBF7C01FA01CB0119A2223008F42AE000
:101E00008E010F5D1F4F822E912CB12CA12CBF0192
:101E1000A50194010E94D735F901CA016A300CF579
:101E2000605DD8016E938D01232B242B252B79F730
:101E300090E080E0109721F0BD01C7010E94D80E0C
:101E4000A1960FB6F894DEBF0FBECDBFDF91CF9144
:101E50001F910F91FF90EF90BF90AF909F908F9048
:101E60000895695CDECF8F929F92AF92BF92CF921E
:101E7000DF92EF92FF920F931F93CF93DF937C013A
:101E8000EB016C0182E0C80ED11C4701E5E08E0E2B
:101E9000911C10E000E0F60141916F0150E070E00C
:101EA00060E02AE0CE010E94E70E5C01E881F98142
:101EB0000190F081E02D6EE2CE0109958A0D9B1D07
:101EC000080F191FC814D90431F7F701458150E0F4
:101ED00070E060E02AE0CE010E94E70E800F911FC3
:101EE000DF91CF911F910F91FF90EF90DF90CF90F6
:101EF000BF90AF909F908F900895CF93DF93D0E0E5
:101F0000C0E0009731F0BC0187EC93E00E94D80E4E
:101F1000EC0162EC71E087EC93E00E94D80E8C0F2C
:101F20009D1FDF91CF910895CF93DF93EC018881BE
:101F300081110AC08AEC91E00E947D0F688183E0E4
:101F4000DF91CF910C94690285EC91E0F5CFFC0113
:101F5000808191810C947D0FFC0124813581FB01EE
:101F60004481558124173507E1F4FC01808191817A
:101F7000FB01608171810097D1F061157105A1F4B9
:101F8000232BC1F0FC01808190E008C0232B91F04D
:101F9000FB01808190E091958195910921E0892B49
:101FA00009F020E0822F08950E94F138F7CF6115E3
:101FB000710561F721E0F6CF009711F481E090E020
:101FC0000C94F936CF93DF93EC01888199810097C7
:101FD00011F00E949537198218821D821C821B8283
:101FE0001A82DF91CF910895FC0180819181009741
:101FF00011F00C9495370895CF92DF92EF92FF92F3
:102000000F931F93CF93DF9300D000D000D0CDB7B4
:10201000DEB77C018B01DC0112968C9112978F5FE9
:1020200012968C9390E0880F991F0E94DC0F6C0130
:10203000F701808191810097D9F040E0242F30E0B2
:10204000D70112966C916150770B2617370774F4FD
:10205000220F331FFC01E20FF31F608171812C0DF1
:102060003D1DF901718360834F5FE8CF0E94953772
:10207000D7011296EC911297F0E0E150F048EE0F84
:10208000FF1FEC0DFD1D11830083CD92DC92F80142
:10209000828123819481658156813781492F99837B
:1020A0006A835B833C838D832E83562F6B81732FD2
:1020B000922F26960FB6F894DEBF0FBECDBFDF91EC
:1020C000CF911F910F91FF90EF90DF90CF900C94E4
:1020D000EE0AFC0180819181009711F00C949537F4
:1020E00008954F925F926F927F928F929F92AF92DC
:1020F000BF92CF92DF92EF92FF920F931F93CF93F5
:10210000DF935C014B0129013A01C091BB04D0E08F
:10211000219708F449C06E01CC0CDD1CE091B90494
:10212000F091BA04EC0DFD1D80819181DC01ED91EF
:10213000FC910280F381E02D830172019401A501DD
:1021400069EB74E00995882319F38091BB04C817E3
:10215000B0F4E091B904F091BA04EC0DFD1D0081DA
:1021600011810115110559F026E531E0F80121939F
:102170003193CF010E946910C8010E949537809168
:10218000BB04C81788F481508093BB0481111DC023
:102190008091B9049091BA04009711F00E9495378C
:1021A0001092BA041092B904DF91CF911F910F9150
:1021B000FF90EF90DF90CF90BF90AF909F908F9067
:1021C0007F906F905F904F90089590E0880F991FD7
:1021D0000E94DC0F8C012091B9043091BA0490E088
:1021E0008091BB049817A0F4E92FF0E0EE0FFF1FD9
:1021F000D801AE0FBF1FE20FF31F9C1730F44081D0
:1022000051814D935C939F5FEBCF42815381F9CF16
:102210002115310519F0C9010E9495371093BA04B0
:102220000093B904C1CF0F931F93CF93DF9300D0D6
:1022300000D000D0CDB7DEB78C01FC0182812381B4
:102240009481658156813781492F99836A835B83A5
:102250003C838D832E83562F6B81732F922F0E9488
:10226000EE0A01151105A9F026E531E0F8012193E8
:102270003193CF010E946910C80126960FB6F894D9
:10228000DEBF0FBECDBFDF91CF911F910F910C9498
:10229000953726960FB6F894DEBF0FBECDBFDF91FF
:1022A000CF911F910F9108958F929F92AF92BF92FD
:1022B000EF92FF921F93CF93DF93EC01162F8A8149
:1022C0009B81AC81BD810196A11DB11D8A839B8339
:1022D000AC83BD830E94DC0F7C01888199810097CB
:1022E000E1F0DC01F70140E050E0BA018A809B8018
:1022F000AC80BD8021E0821A9108A108B108481580
:1023000059056A057B0538F42D9121934F5F5F4F86
:102310006F4F7F4FEBCF0E949537EA81FB81EE0D27
:10232000FF1D31971083F982E882DF91CF911F91D1
:10233000FF90EF90BF90AF909F908F900895CF92B5
:10234000DF92EF92FF92CF93DF936A017B01EC0162
:102350002296C114D104E104F10451F460E0CE01ED
:10236000DF91CF91FF90EF90DF90CF900C945411BC
:102370006C2D6F7787E0F694E794D794C7948A958D
:10238000D1F7C114D104E104F10409F06068CE0171
:102390000E945411C114D104E104F10449F7DF9102
:1023A000CF91FF90EF90DF90CF90089526E531E038
:1023B000FC013183208313821282148215821682DB
:1023C00017826295607F02960C9454111F93CF93ED
:1023D000DF93EC01162F672F0E945411612FCE015D
:1023E000DF91CF911F910C9454118F929F92AF92D5
:1023F000BF92CF92DF92EF92FF920F931F93CF93F2
:10240000DF93FC01A281B3818C918670843009F046
:1024100056C04530510509F061C0C088D188D90146
:102420008D919C91982789279827C816D90609F07D
:1024300055C07B018F0184E190E00E94F936EC01E8
:10244000F80184849584A684B7840289138966E0A0
:1024500070E00E94D6118C869D86AE86BF8680E194
:1024600091E099838883D98AC88A1B8B0A8BEA8179
:10247000FB818081826080838E010E5F1F4F62E04E
:10248000C8010E945411B601C8010E94E6110E94C1
:102490001F03688779878A879B87BE01C7010E94CF
:1024A000FC0F81E0DF91CF911F910F91FF90EF9092
:1024B000DF90CF90BF90AF909F908F900895443061
:1024C000510561F4D9012D913C9132272327322700
:1024D00081E0408951892417350721F380E0E2CF5C
:1024E000DC018AEB91E08D939D9384E0FB010190E8
:1024F0000D928A95E1F708950F931F93CF93DF9381
:10250000CDB7DEB728970FB6F894DEBF0FBECDBFAC
:102510008C01DC01ED91FC910680F781E02D09959D
:10252000F80184850E94E805892BB1F148E050E06C
:10253000BE016F5F7F4FD8011C968C910E94DA0616
:1025400018161906F4F4D801519684E0FE0131966C
:1025500001900D928A95E1F78D8190E0982F882760
:102560002E81820F911DF801968B858B8F81282FEC
:1025700030E0322F22278885820F932F911D928F72
:10258000818F28960FB6F894DEBF0FBECDBFDF91C6
:10259000CF911F910F91089590E080E0F2CF4F927C
:1025A0005F926F927F928F929F92AF92BF92CF92E3
:1025B000DF92EF92FF920F931F93CF93DF93CDB7EC
:1025C000DEB763970FB6F894DEBF0FBECDBF7C01B8
:1025D0006B013A01FB01DB018D918111FDCF30E0F0
:1025E00020E090E080E05AE04191442301F1843002
:1025F00091050CF042C04E3269F42F3F310509F0CD
:10260000E4F5D301A80FB91F12962C93019630E080
:1026100020E0EACF529FB001539F700D1124242F68
:10262000440F330B20533109260F371FDDCF2F3FC7
:10263000310509F014F584309105FCF4680E791E1B
:10264000F3012283CC24C394D12CC60163960FB628
:10265000F894DEBF0FBECDBFDF91CF911F910F91D8
:10266000FF90EF90DF90CF90BF90AF909F908F90B2
:102670007F906F905F904F900895F7014281538152
:10268000648175818091930490919404A091950444
:10269000B0919604481759076A077B0709F400C2EE
:1026A0008701085F1F4F0E941F036F7077277C5FB1
:1026B000C8010E94A707813009F0F7C18AEB91E0B9
:1026C0009A838983F70182819381A481B5818B8369
:1026D0009C83AD83BE8345E350E0BE016F5F7F4FB7
:1026E000C8010E941504892B31F4D12CC12CC801DA
:1026F0000E94FC04AACF0E941F03F7017783668320
:1027000042E050E0B7016A5F7F4FC8010E94410676
:1027100081E090E09A83898342E050E0BE016F5FE0
:102720007F4FC8010E94410680E091E09A8389832F
:1027300042E050E0BE016F5F7F4FC8010E9441063A
:102740001A82198242E050E0BE016F5F7F4FC801DC
:102750000E94410642E050E0BE016F5F7F4FC8011A
:102760000E94410642E050E0BE016F5F7F4FC8010A
:102770000E9441065601F6018081882301F165011E
:10278000F60181912F01882311F08E32B1F44601B8
:102790008A189B081814190474F48D8641E050E0DF
:1027A000BE01635F7F4FC8010E944106A401B501CD
:1027B000C8010E9441065201DECF6201E1CF1D86B1
:1027C00041E050E0BE01635F7F4FC8010E944106B7
:1027D000C12CDD24D394DA82C98242E050E0BE01EC
:1027E0006F5F7F4FC8010E944106DA82C98242E0D2
:1027F00050E0BE016F5F7F4FC8010E944106C801D3
:102800000E947E07892B09F470CFF3E0AF2EB12C24
:10281000230122E0420E511C43C0F7014281538143
:1028200064817581818D928DA38DB48D4817590770
:102830006A077B0709F02AC1858D968DC59709F037
:1028400025C181A192A10C970CF425C14CE050E068
:10285000BE016F5F7F4FC8010E9417078B819C816B
:102860009827892798279A8B898BF701468157816A
:1028700029813A814217530711F497FD2FC0C801EF
:102880000E94ED03ECEFCE2EDD24DA9481E0A81A4D
:10289000B10809F42CCFFFEFCF16DF0609F027CFE0
:1028A0000E941F033B014C01C8010E947C121816B4
:1028B00019060CF4B2CF0E941F0366197709880924
:1028C0009909693873418105910508F0DBC062E31D
:1028D00070E080E090E00E94ED02E6CF8F70927091
:1028E000892B41F0C8010E94ED037BEFC72EDD2448
:1028F000DA94CCCF6F807884762467247624D12C28
:10290000C12C61147104D1F4C8010E94ED036AEF77
:10291000C62EDD24DA94BACF8D85811117C0C80187
:102920000E943607C8010E943607C8010E94360778
:10293000C8010E943607FFEFCF1ADF0A8D819E8102
:10294000982789279827C816D906A8F441E050E0AF
:10295000BE01635F7F4FC8010E9417078D858823E2
:10296000D9F28D859FEF980F9D878823A9F2C80122
:102970000E943607F6CF912C812C41E050E0BE0139
:102980006D5E7F4FC8010E9417078B89982F907C3E
:1029900061F4882389F08B899FEF980F9B8B8823A4
:1029A00041F0C8010E943607F6CFC8010E943607E1
:1029B0001B8A8B898111E1CF42E050E0BE01615F4B
:1029C0007F4FC8010E94170742E050E0BE01635FDD
:1029D0007F4FC8010E941707C8010E943607C8012F
:1029E0000E943607C8010E943607C8010E943607B8
:1029F00042E050E0BE016F5E7F4FC8010E941707A2
:102A00008F85988981159140E9F4CD84DE84DC249A
:102A1000CD24DC2481E0C816D104A1F489899A89E7
:102A20008115944041F0C8010E94ED0357EFC52E77
:102A3000DD24DA942BCF44E050E0B201C8010E94BB
:102A4000170724CFD12CC12C89899A8998278927E7
:102A50009827C816D90638F4C8010E943607FFEF38
:102A6000CF1ADF0AF1CF2FEF821A920A6814790485
:102A700009F083CFC8010E94ED0346EFC42EDD2488
:102A8000DA9404CFCC24CA94DC2C00CF2EEFC22ED3
:102A9000DD24DA94FBCE9DEFC92EDD24DA94F6CE48
:102AA0008EEFC82EDD24DA94D0CDD12CC12CCDCD23
:102AB000CF92DF92EF92FF920F931F93CF93DF930A
:102AC000CDB7DEB7AF970FB6F894DEBF0FBECDBF60
:102AD0007C016A010AEB11E01A8309831C861B86BC
:102AE00088EE93E0A0E0B0E08D879E87AF87B88B3B
:102AF0008AE191E09A87898788E08D8B198F088F0A
:102B00001A8E1B8E1C8E1D8E1BA70AA71CA61DA627
:102B10001EA61FA68091800490918104A09182043A
:102B2000B09183048EA39FA3A8A7B9A78B839C838E
:102B3000AD83BE8318861F82AE01465D5F4FCE0116
:102B400001960E94CF1281309105B1F4D701ED9129
:102B5000FC910488F589E02D1DA30CA38CA59DA5EF
:102B6000AEA5BFA58EA39FA3A8A7B9A7A601BE0126
:102B70006C5D7F4FC7010995AF960FB6F894DEBF25
:102B80000FBECDBFDF91CF911F910F91FF90EF90BE
:102B9000DF90CF900895CF92DF92EF92FF920F9344
:102BA0001F93CF93DF93CDB7DEB7AF970FB6F894EF
:102BB000DEBF0FBECDBF7C016A010AEB11E01A83B4
:102BC00009831C861B8688EE93E0A0E0B0E08D8729
:102BD0009E87AF87B88B8AE191E09A87898788E0E2
:102BE0008D8B198F088F1A8E1B8E1C8E1D8E1BA726
:102BF0000AA71CA61DA61EA61FA680918004909160
:102C00008104A0918204B09183048EA39FA3A8A7FE
:102C1000B9A78B839C83AD83BE8318861F82AE01C8
:102C2000465D5F4FCE0101960E94CF128130910523
:102C3000B1F4D701ED91FC910684F785E02D1DA339
:102C40000CA38CA59DA5AEA5BFA58EA39FA3A8A7E9
:102C5000B9A7A601BE016C5D7F4FC7010995AF966C
:102C60000FB6F894DEBF0FBECDBFDF91CF911F919D
:102C70000F91FF90EF90DF90CF9008954F925F9269
:102C80006F927F92AF92BF92CF92DF92EF92FF92BC
:102C90000F931F93CF93DF936115710571F1411568
:102CA000510559F18A017B01EC014A805B806C80FF
:102CB0007D80CA01550FAA0BBB0B840D951DA61D67
:102CC000B71D8A839B83AC83BD830E94DC0F6C019C
:102CD000A880B980A114B10439F0A201B5010E9405
:102CE000E838C5010E949537C601840D951DA801DD
:102CF000B7010E94E838D982C882DF91CF911F9135
:102D00000F91FF90EF90DF90CF90BF90AF907F90AA
:102D10006F905F904F900895EF92FF920F931F93E3
:102D2000CF93DF93EC018B01FB01E480F5806F2DE5
:102D30000E9454116E2DCE010E945411F801608141
:102D40007181A701CE01DF91CF911F910F91FF906B
:102D5000EF900C943E160F931F93CF93DF93EC01EB
:102D600088819981009759F02A813B81261737077E
:102D700030F081E0DF91CF911F910F9108958B0189
:102D80006F5F7F4F0E941E38009759F099838883A8
:102D90001B830A832C813D81232B59F7FC01108270
:102DA000E8CF80E0E7CFEF92FF920F931F93CF938E
:102DB000DF936115710541F480E0DF91CF911F91A0
:102DC0000F91FF90EF90089541155105B1F07B01EF
:102DD000EC010C811D81040F151FB8010E94AB1678
:102DE000882351F3288139818C819D81B701820F1D
:102DF000931F0E94FA381D830C8381E0DECFCF93AE
:102E0000DF93EC01FB0144815581608171810E9457
:102E1000D316811103C0CE010E94E20FCE01DF91D3
:102E2000CF910895EF92FF920F931F93CF93DF936B
:102E3000EC017B018A01BA010E94AB1681110BC023
:102E4000CE010E94E20FCE01DF91CF911F910F9131
:102E5000FF90EF9008951D830C83B70188819981BD
:102E60000E94FA38F0CFFB01DC0111961C921E92F1
:102E700013961C921E92129715961C921E921497EE
:102E80008617970749F0608171816115710521F0FE
:102E9000448155810C9412170895AF92BF92CF923E
:102EA000DF92EF92FF920F931F93CF93DF93CDB7F3
:102EB000DEB768970FB6F894DEBF0FBECDBF209186
:102EC000BB042D3008F08AC06A015B017C0110E070
:102ED00000E08091BB0480171106D1F0CCF0E091A6
:102EE000B904F091BA04C801880F991FE80FF91FBF
:102EF00080819181DC01ED91FC910190F081E02DC8
:102F0000B7010995882309F469C00F5F1F4FE1CF0E
:102F1000B501CE010D960E943317B601CE0143963E
:102F20000E94331784E190E00E94F9368C0163E03F
:102F300070E00E94D61184E190E0A0E0B0E0F801DA
:102F400084879587A687B7878AE691E091838083F7
:102F5000F38AE28A0280F381E02D808181608083A0
:102F600018861F8219861A861B861C86BE01635F1F
:102F70007F4FCE0101960E943317BE016F5F7F4FD6
:102F8000CE0107960E948C16CE0101960E94F40F86
:102F90004F89588D6B897C89CE0107960E943E1619
:102FA00049855A856B857C85C8010E949F1149859A
:102FB0005A856F817885C80102960E943E16CE011F
:102FC00007960E946910CE0143960E94F40FCE012D
:102FD0000D960E94F40FC8010E94131168960FB657
:102FE000F894DEBF0FBECDBFDF91CF911F910F913F
:102FF000FF90EF90DF90CF90BF90AF9008950F9328
:103000001F93CF93DF93CDB7DEB72C970FB6F8940D
:10301000DEBF0FBECDBF8C01CE0101960E943317DB
:10302000B801CE0107960E943317BE016F5F7F4F34
:10303000CE0107960E94AC0F182FCE0107960E9472
:10304000F40FCE0101960E94F40F81E0111101C02E
:1030500080E02C960FB6F894DEBF0FBECDBFDF9197
:10306000CF911F910F910895FC011182108213825C
:103070001282158214826115710551F0FB010190D5
:103080000020E9F73197AF01461B570B0C9412173C
:103090000895FF920F931F93CF93DF93CDB7DEB7C1
:1030A00064970FB6F894DEBF0FBECDBF8C01BC0194
:1030B000CE010D960E94341863ED71E0CE010796A3
:1030C0000E943418BE01635F7F4FCE0101960E94BB
:1030D0003317BE01695F7F4FCE0101960E94FF1733
:1030E000F82ECE0101960E94F40FCE0107960E94A1
:1030F000F40F8091E00482FF04C086958170F81679
:10310000C9F08091E004F0FA81F98093E0048091A5
:10311000E20482FB992790F9F91661F0F0FA82F93E
:103120008093E204FF2031F081E08C8BCE01449645
:103130000E94940F8091E00484608093E004CE01AB
:103140000D960E94F40FB801CE010D960E9434181E
:1031500060ED71E0CE0107960E943418BE01635FF6
:103160007F4FCE0101960E943317BE01695F7F4FEA
:10317000CE0101960E94FF17F82ECE0101960E9403
:10318000F40FCE0107960E94F40F8091E00484FFB3
:1031900005C083FB882780F9F816C1F08091E00410
:1031A000F0FA83F98093E0048091E20483FB99278D
:1031B00090F9F91659F0F0FA83F98093E204FF20B0
:1031C00029F01B8ACE0143960E94940F8091E0045F
:1031D00080618093E004CE010D960E94F40FB80147
:1031E000CE010D960E94341866EE71E0CE0107966E
:1031F0000E943418BE01635F7F4FCE0101960E948A
:103200003317BE01695F7F4FCE0101960E94FF1701
:10321000F82ECE0101960E94F40FCE0107960E946F
:10322000F40F8091E00486FF05C085FB882780F9B4
:10323000F816B1F08091E004F0FA85F98093E0048B
:103240008091E20484FB992790F9F91649F0F0FA8D
:1032500084F98093E204FF2019F081E00E94280B9A
:103260008091E00480648093E004CE010D960E947A
:10327000F40FB801CE010D960E94341863EE71E090
:10328000CE0107960E943418BE01635F7F4FCE01C6
:1032900001960E943317BE01695F7F4FCE010196F0
:1032A0000E94FF17F82ECE0101960E94F40FCE0166
:1032B00007960E94F40F8091E10480FF07C080917F
:1032C000E00487FB882780F9F816B1F08091E004CC
:1032D000F0FA87F98093E0048091E20485FB992756
:1032E00090F9F91649F0F0FA85F98093E204FF208D
:1032F00019F080E00E94280B8091E10481608093A6
:10330000E104CE010D960E94F40FB801CE010D9696
:103310000E9434186FEF71E0CE0107960E943418B6
:10332000BE01635F7F4FCE0101960E943317BE013D
:10333000695F7F4FCE0101960E94FF17F82ECE01E4
:1033400001960E94F40FCE0107960E94F40F80911F
:10335000E10482FF04C086958170F816B1F0809177
:10336000E104F0FA81F98093E1048091E20486FBA4
:10337000992790F9F91649F0F0FA86F98093E2045A
:10338000FF2019F081E00E94200B8091E10484600D
:103390008093E104CE010D960E94F40FB801CE0196
:1033A0000D960E9434186CEF71E0CE0107960E94D2
:1033B0003418BE01635F7F4FCE0101960E94331720
:1033C000BE01695F7F4FCE0101960E94FF17182F43
:1033D000CE0101960E94F40FCE0107960E94F40FD1
:1033E0008091E10484FF05C083FB882780F91817CA
:1033F000B1F08091E10410FB83F98093E1048091A6
:10340000E20487FB992790F9191749F010FB87F917
:103410008093E204112319F080E00E94200B809138
:10342000E10480618093E104CE010D960E94F40FC7
:1034300064960FB6F894DEBF0FBECDBFDF91CF917B
:103440001F910F91FF900895BF92CF92DF92EF925C
:10345000FF920F931F93CF93DF93CDB7DEB76E9795
:103460000FB6F894DEBF0FBECDBFFC0190818091F6
:10347000DD0483FB222720F9291709F40CC190FBF6
:1034800083F98093DD04992309F415C184FD03C1F8
:103490008091BB048111FFC00E941F036093C6048A
:1034A0007093C7048093C8049093C90464EC71E0DE
:1034B000CE010D960E94341864EC71E0CE01439663
:1034C0000E94341864EC71E0CE0149960E943418D1
:1034D00088E090E00E94F9367C0161E070E00E9493
:1034E000D61180E691E0F7019183808318861F82D0
:1034F00019861A861B861C8610E000E0F801E45449
:10350000FE4F6491CE0107960E9454110F5F1F4F2A
:103510000730110599F7C98460E0CE0107960E9433
:1035200054116AE070E0CE0107960E94E611D12C9A
:103530000F8118850C0D1D1DF8018081826080832C
:10354000BE01635F7F4FCE0101960E943317BE011B
:103550006F5F7F4FCE0107960E948C16CE010196B9
:103560000E94F40F64EC71E0CE0101960E943418C1
:10357000CE0101960E940E01B82ECE0101960E9446
:10358000F40FB11026C0F80180818460808364EC60
:1035900071E0CE0101960E943418BE016F5F7F4F2B
:1035A000CE0107960E948C16CE0101960E94F40F60
:1035B00064EC71E0CE0101960E943418BE016F5F89
:1035C0007F4FCE0107960E948C16CE0101960E9475
:1035D000F40FCE0143960E940E01811138C0EF8195
:1035E000F885EC0DFD1D808180688083BE016D5ED5
:1035F0007F4FCE0101960E943317BE016F5F7F4F50
:10360000CE0107960E948C16CE0101960E94F40FFF
:10361000CE0149960E940E01811119C0EF81F885F3
:10362000EC0DFD1D808180648083BE01675E7F4F4D
:10363000CE0101960E943317BE016F5F7F4FCE010E
:1036400007960E948C16CE0101960E94F40F4985C0
:103650005A856B857C85C7010E949F1149855A85D3
:103660006F817885C70102960E943E16CE010796AB
:103670000E946910B70189EB94E00E94FC0FCE0113
:1036800049960E94F40FCE0143960E94F40FCE019A
:103690000D960E94F40F6E960FB6F894DEBF0FBE23
:1036A000CDBFDF91CF911F910F91FF90EF90DF90F1
:1036B000CF90BF9008958F7E8093DD0410E000E0EE
:1036C00056E5C52E51E0D52E8091B9049091BA04EB
:1036D0002091BB0420171106C1F0BCF09801220F05
:1036E000331F820F931FFC01E080F180E114F1048D
:1036F00049F0F701C192D192CF010E946910C70130
:103700000E9495370F5F1F4FDFCF009731F00E9467
:1037100095371092BA041092B9041092BB048091AC
:10372000BC049091BD04009731F00E94953710922F
:10373000BD041092BC041092BE041092BF041092FB
:10374000C0041092C1048091DD048F778093DD0462
:103750008091DE048B7F8F7D8093DE049CCFCF939E
:10376000DF931F92CDB7DEB79091DD0491FB222746
:1037700020F9281749F080FB91F99093DD048983A3
:10378000CE0101960E94241A0F90DF91CF910895E7
:103790008CEC94E00E94A00680E00C94AF1BFF929A
:1037A0000F931F93CF93DF93CDB7DEB72C970FB650
:1037B000F894DEBF0FBECDBFF090DD04F7FAFF2412
:1037C000F0F88091DE0485FF02C0F110D7C082E1DD
:1037D00090E00E94F9368C0168E070E00E94D611FA
:1037E00084E190E0A0E0B0E0F80184879587A687A7
:1037F000B7878CE491E0918380830280F381E02D90
:1038000080818260808318861F8219861A861B86B3
:103810001C866091CA047091CB04D80151967C93A8
:103820006E935097CE0107960E94E6118091CA04CC
:103830009091CB048F3F980709F0ACC081E090E0F5
:103840009093CB048093CA04F1103FC08091DD04B3
:1038500080688093DD0486FD22C080648093DD044F
:1038600063EB74E0CE0101960E943317CE010196FE
:103870000E940E01F82ECE0101960E94F40FF11065
:103880000EC063EB74E0CE0101960E943317CE01A7
:1038900001960E94A70FCE0101960E94F40F6AE1E3
:1038A00072E0CE0101960E943418BE016F5F7F4F17
:1038B000CE0107960E948C16CE0101960E94F40F4D
:1038C00060E0CE0107960E9454118091DE0485FDD0
:1038D0003DC080628093DE0484FD22C080618093BD
:1038E000DE0464EC71E0CE0101960E943418CE0132
:1038F00001960E940E01F82ECE0101960E94F40F4F
:10390000F1100EC064EC71E0CE0101960E943418F3
:1039100089819A810E944918CE0101960E94F40F74
:1039200060E372E0CE0101960E943418BE016F5F21
:103930007F4FCE0107960E948C16CE0101960E9401
:10394000F40F60E0CE0107960E94541149855A8514
:103950006B857C85C8010E949F1149855A856F81BE
:103960007885C80102960E943E16CE0107960E94F5
:103970006910B80189EB94E00E94FC0F2C960FB6F9
:10398000F894DEBF0FBECDBFDF91CF911F910F9195
:10399000FF900895019654CF1F93CF93DF93CDB737
:1039A000DEB72C970FB6F894DEBF0FBECDBF809167
:1039B000DD0485FF23C08F7D8093DD0486FF76C004
:1039C00063EB74E0CE0101960E9433176AE172E066
:1039D000CE0107960E943418AE014F5F5F4FBE01C3
:1039E000695F7F4F83EB94E00E944D17CE010796ED
:1039F0000E94F40FCE0101960E94F40F8091DE0424
:103A000080FF23C08E7F8093DE0481FF80C064EC42
:103A100071E0CE0107960E94341864E472E0CE0192
:103A200001960E943418AE01495F5F4FBE016F5F7F
:103A30007F4F82EB94E00E944D17CE0101960E94C9
:103A4000F40FCE0107960E94F40F8091DE0483FFED
:103A500023C0877F8093DE0484FF8AC064EC71E01A
:103A6000CE0107960E94341860E372E0CE01019601
:103A70000E943418AE01495F5F4FBE016F5F7F4FF8
:103A800081EB94E00E944D17CE0101960E94F40F45
:103A9000CE0107960E94F40F2C960FB6F894DEBF65
:103AA0000FBECDBFDF91CF911F91089580648093A9
:103AB000DD0463EB74E0CE0101960E943317CE0162
:103AC00001960E940E01182FCE0101960E94F40F5C
:103AD000111194CF63EB74E0CE0107960E94331767
:103AE0006AE172E0CE0101960E943418AE01495F8E
:103AF0005F4FBE016F5F7F4F83EB94E00E944D17D5
:103B0000CE0101960E94F40FCE01079675CF826018
:103B10008093DE0464EC71E0CE0101960E943418BB
:103B2000CE0101960E940E01182FCE0101960E942F
:103B3000F40F11118ACF64EC71E0CE0101960E945E
:103B4000341864E472E0CE0107960E943418AE0186
:103B50004F5F5F4FBE01695F7F4F82EB94E00E9431
:103B60004D17CE0107960E94F40FCE0101966BCF40
:103B700080618093DE0464EC71E0CE0101960E94C6
:103B80003418CE0101960E940E01182FCE01019625
:103B90000E94F40F111180CF64EC71E0CE01019608
:103BA0000E94341860E372E0CE0107960E94341838
:103BB000AE014F5F5F4FBE01695F7F4F81EB94E0C5
:103BC0000E944D17CE0107960E94F40FCE01019678
:103BD00061CF2F923F924F925F926F927F928F921E
:103BE0009F92AF92BF92CF92DF92EF92FF920F938C
:103BF0001F93CF93DF93CDB7DEB7E0970FB6F8945E
:103C0000DEBF0FBECDBF8C010E941F036093C604B0
:103C10007093C7048093C8049093C904D8014D9150
:103C20005C91119714966D917C918CEB94E00E94BD
:103C30003E168091BE049091BF04A091C004B09143
:103C4000C1048BA79CA7ADA7BEA70297A105B1058C
:103C500008F440C00091BC041091BD04F8013196F5
:103C600033E0832E912CA12CB12C412C512C32010C
:103C70004394C12CD12C760133243A94380C2190F2
:103C8000A22DAF77B0E0A30192010E948D35C60E40
:103C9000D71EE81EF91E27FE36C08BA59CA5ADA534
:103CA000BEA588159905AA05BB05A0F027E0440C20
:103CB000551C661C771C2A95D1F79FEF891A990A23
:103CC000A90AB90AA7E08A169104A104B104A1F6D1
:103CD0000E94C81BE0960FB6F894DEBF0FBECDBFA2
:103CE000DF91CF911F910F91FF90EF90DF90CF90D8
:103CF000BF90AF909F908F907F906F905F904F900C
:103D00003F902F90089526013701430C511C611CF0
:103D1000711C8BA59CA5ADA5BEA584159505A60512
:103D2000B705C0F2D8018C90E82DF0E0FCA7EBA716
:103D300094E0F595E7959A95E1F73297EA30F10529
:103D4000D8F4EB55F14E0C94EC36AF1E3D1F131F0B
:103D50001D1FBC1E251FBC1E2D1FBC1E351FF2E0E3
:103D6000CF16D104E104F10409F0B2CF13968C917F
:103D70008823A1F10E94C81B8091BE049091BF04CA
:103D8000A091C004B091C1040097A105B10509F448
:103D9000A1CF84159505A605B70510F42C013D01AA
:103DA00084199509A609B7098093BE049093BF04AE
:103DB000A093C004B093C1040097A105B10509F018
:103DC000D5C18091BC049091BD04009711F00E9470
:103DD00095371092BD041092BC047CCF8091DD0415
:103DE00080618093DD040E941F036093C20470937E
:103DF000C3048093C4049093C5046091BC04709183
:103E0000BD04630D711D22E030E040E050E082E02F
:103E100090E00E9471108091DD0484FD0E94CC1C12
:103E20000E94CF1BA9CFB801630D711DA701960198
:103E300084E090E00E9471109FCFB801630D711D66
:103E4000A701960185E090E0F5CFB801630D711DE3
:103E5000A701960187E090E0EDCFB801630D711DD9
:103E6000A701960189E090E0E5CFB801630D711DCF
:103E7000A70196018BE090E0DDCF030D111DF80145
:103E8000A080B180BA24AB24BA24F1EDAF16F7E0DC
:103E9000BF0608F4EEC064EC71E0CE0185960E9486
:103EA000341891EDC91697E0D906E104F10408F041
:103EB000DBC08BA49CA495948794A3E08A229924C8
:103EC0008114910469F0F801219031908F01922DB5
:103ED000832D98AB8FA792E0C91AD108E108F108A9
:103EE000C60101960E94DC0F5C01A601B8010E9488
:103EF000E838CA0CDB1CD6011C92B501CE014F96E6
:103F00000E943418A114B10419F0C5010E9495371C
:103F1000B1E08B16910409F4E6C0E2E08E1691043C
:103F200009F4FDC0BE01615E7F4FCE0149960E943B
:103F30003317BE016B5D7F4FCE0143960E9433174E
:103F4000BE01675E7F4FCE0107960E943317BE0108
:103F50006D5E7F4FCE010D960E9433176AE172E0CD
:103F6000CE0101960E943418BE016F5F7F4FCE01D3
:103F70000D960E94AC0F182FCE0101960E94F40FEF
:103F8000112379F0BE01695F7F4FCE0101960E9437
:103F90003317CE0101960E94A70FCE0101960E9411
:103FA000F40FCE010D960E94F40FCE0107960E94E9
:103FB000F40FBE01675E7F4FCE0101960E9433175A
:103FC000BE016D5E7F4FCE0107960E943317CE0172
:103FD00007960E94F40FCE0101960E94F40FBE01D5
:103FE000675E7F4FCE0107960E943317BE016D5E5C
:103FF0007F4FCE010D960E94331760E372E0CE0131
:1040000001960E943418BE016F5F7F4FCE010D965E
:104010000E94AC0F182FCE0101960E94F40F1123BD
:1040200079F0BE01695F7F4FCE0101960E94331780
:1040300089819A810E944918CE0101960E94F40F4D
:10404000CE010D960E94F40FCE0107960E94F40F48
:10405000CE0143960E94F40FCE0149960E94F40FC0
:10406000CE014F960E94F40FCE0185960E94F40F68
:1040700083CEC50101960E94DC0F4C01A501B80159
:104080006E5F7F4F0E94E838F401EA0DFB1D10823D
:10409000B401CE0101960E9434188114910419F0E4
:1040A000C4010E94953782E0A80EB11C0A0D1B1DA9
:1040B000CA18DB08E108F10889819A819EA38DA3C3
:1040C0008B819C8198A78FA38D819E819AA789A7B8
:1040D0001A8219821C821B821E821D82CE010196C9
:1040E0000E94F40FDECE88E090E00E94F9367C0159
:1040F00064E070E00E94D61186E591E0D7018D93CF
:104100009D938D0162E0CD010E9454116FA578A9A5
:10411000C8010E94E611C7010E94131103CF82E17A
:1041200090E00E94F9368C0165E070E00E94D611A3
:1041300084E190E0A0E0B0E0F80184879587A6874D
:10414000B78782E491E0D8018D939D937D0162E071
:10415000CD010E9454116FA578A9C7010E94E611F4
:10416000B80189EB94E00E94FC0FDCCE0E94DC0FCA
:104170008C01DC0140E050E0BA01481A590A8091F4
:10418000BC049091BD04C090BE04D090BF04E090E8
:10419000C004F090C1044C155D056E057F0560F408
:1041A0008A0F9B1FFC01E40DF51D80818D934F5FED
:1041B0005F4F6F4F7F4FE3CF009711F00E9495370D
:1041C0001093BD040093BC0485CD2F923F924F9273
:1041D0005F926F927F928F929F92AF92BF92DF9287
:1041E000EF92FF920F931F93CF93DF93CDB7DEB77C
:1041F000E4970FB6F894DEBF0FBECDBF7C014A0135
:104200005B0119010E941F032B013C018701055B23
:104210001F4FC8010E947C12181619069CF00E94BC
:104220001F03641975098609970986169706A8065B
:10423000B90608F4C6C162E370E080E090E00E9435
:10424000ED02E7CF42E250E0BE016F5F7F4FC80151
:104250000E9417078981823009F0AEC1F801858973
:1042600096898334910509F0A7C16D817E818F8184
:1042700098850E94F2362B013C01F1014082518267
:104280006282738246E050E0B701685F7F4FCE01E3
:104290004D960E94DB38892B99F4F701808191813A
:1042A000A281B381481659066A067B0648F08481CC
:1042B0009581A681B78184159505A605B705E8F413
:1042C000C8010E94ED03D12C8D2DE4960FB6F89411
:1042D000DEBF0FBECDBFDF91CF911F910F91FF9039
:1042E000EF90DF90BF90AF909F908F907F906F90F6
:1042F0005F904F903F902F90089589899A89AB895C
:10430000BC8986879787A08BB18B8EECA82EB12CA9
:10431000C8010E943607F1E0AF1AB108C9F7D12CE5
:10432000C7014E964C01F701E45AFF4FFAA7E9A7DF
:1043300040969CA78BA7F297FEA7EDA7089798AB8E
:104340008FA77097FAABE9AB1701F2E22F0E311C81
:1043500040979CAB8BABF801818D928D1816190696
:104360000CF02BC1C8010E9436078F30910509F46B
:10437000A8C08CF58330910509F46CC08CF40097CB
:1043800051F3019709F45BC0C8010E943607B82EAB
:10439000BA94FFEFBF16F9F2C8010E943607F8CFB2
:1043A0008630910509F472C00C9771F7C8010E941C
:1043B00036075C01BB24C50101960E94F936F7015E
:1043C000958B848BA501BC01C8010E94D208F7011E
:1043D000848995898AC08633910509F48BC074F469
:1043E0008333910509F4CEC0C59771F6C8010E94C8
:1043F0003607C8010E943607D82EADCF8B33910502
:1044000009F4AAC08F3F910509F4A5CFCA9709F016
:10441000BBCFC8010E94360744E050E06DA57EA5E1
:10442000C8010E941707F70162A573A584A595A589
:104430000E94F23662A773A784A795A78CCFC80104
:104440000E94360744E050E06BA97CA9C8010E9495
:10445000170781CFC8010E943607A82E44E050E01C
:1044600069A97AA9C8010E941707712C612C8A2DAD
:104470008450990B5C016A147B040CF06CCFC8016A
:104480000E9436079FEF691A790AF5CFC8010E948A
:104490003607A82E44E050E0B101C8010E9417077A
:1044A000712C612CEA2DE450FF0B5F016A147B0430
:1044B0000CF051CFC8010E943607FFEF6F1A7F0A38
:1044C000F5CFC8010E9436075C01BB24C5010196E7
:1044D0000E94F936F701938B828BA501BC01C801BC
:1044E0000E94D208F70182899389A80EB91EF501AE
:1044F000108231CFC8010E943607B82EF701868D91
:10450000811109C0878D811106C080A1811103C06E
:1045100081A18823A1F0E9A5FAA54080518062809D
:104520007380B401CE0183960E9470128DA19EA16A
:10453000AFA1B8A584159505A605B70521F444E0FB
:1045400050E0B40183CFBA94FFEFBF1609F403CF54
:10455000C8010E943607F7CFC8010E94360744E021
:1045600050E06BA57CA5C8010E941707F70166A55E
:1045700077A580A991A90E94F23666A777A780AB9C
:1045800091ABE9CEC8010E94360744E050E06FA528
:1045900078A9C8010E941707F70166A177A180A535
:1045A00091A50E94F23666A377A380A791A762AB7C
:1045B00073AB84AB95ABCFCED12CC8010E94ED0379
:1045C00083CEDD24DA9480CE7F928F929F92AF9239
:1045D000BF92CF92DF92EF92FF920F931F93CF93F0
:1045E000DF93CDB7DEB7A6970FB6F894DEBF0FBE48
:1045F000CDBF8C01762E942E852E20E2A22ECE01E8
:1046000001967C01DC01EA2D1D92EA95E9F768012B
:10461000FBE4CF0ED11C8AEB91E09AA389A38FEF24
:104620008BA38CA38DA38EA343E450E0BE016F5DEA
:104630007F4FC6010E941504019609F4BFC081E0B6
:1046400089838A8386E0B82EBB821C82D8011496A7
:104650006D917D918D919C9117970E94F2366D839B
:104660007E838F83988789869A8680E890E09C87EE
:104670008B874CE150E0B701C6010E944106FE0164
:1046800037968AE1DF011D928A95E9F74801B8E083
:104690008B0E911CF401D70101900D92BA94E1F7B1
:1046A00040E150E0B701C6010E944106F7011192B6
:1046B000AA94E9F796E0A92EB12C40E250E0B701A8
:1046C000C6010E944106F1E0AF1AB108B1F783E6D6
:1046D000898392E89A8393E59B838C8385E38D831A
:1046E00081E08E837F829DE3988797E099878A8710
:1046F00086E0F401DE011B9601900D928A95E1F7A8
:104700008CE0898B8A8B68E572E0CE0143960E942B
:10471000FA38D8011B966C91CE0149960E941F0170
:10472000F8016485CE014B960E941F01D8011D96A9
:104730006C91CE014D960E941F014EE150E0B701F1
:10474000C6010E944106B3E07B121EC082E389834A
:1047500084E08A83F80196859B8397859C83908962
:104760009D8391899E8396E39F838887868D898721
:10477000878D8A8780A18B8781A18C874CE050E050
:10478000B701C6010E94410687E3898386E08A83D8
:1047900091E09B8393E09C838D838FE08E838AE3FB
:1047A0008F838BE388878FEF898749E050E0B701DB
:1047B000C6010E944106C6010E947E07A6960FB65A
:1047C000F894DEBF0FBECDBFDF91CF911F910F9147
:1047D000FF90EF90DF90CF90BF90AF909F908F9021
:1047E0007F90089585ED8093BC0080919D0390910A
:1047F0009E03A0919F03B091A0030796A11DB11D38
:1048000023E0B695A795979587952A95D1F720919E
:10481000BC0024FD03C010929B03089540919D03AA
:1048200050919E0360919F037091A003452B462BEE
:10483000472B69F30097A105B10541F02AE22A95BB
:10484000F1F700C00197A109B109E1CF80919C0364
:104850000C9454090F931F93CF93DF93CDB7DEB71A
:104860006C970FB6F894DEBF0FBECDBF64EC71E05D
:10487000CE0147960E9434186091A9047091AA0451
:104880008091AB049091AC048E010F5F1F4F23E029
:1048900041E00E945131B801CE0141960E94341886
:1048A0006FE572E0C8010E943418BE016F5E7F4F51
:1048B000C8010E94FF16FC0144815581608171810D
:1048C000CE0147960E94D316C8010E94F40FCE0174
:1048D00041960E94F40F6091AD047091AE048091F6
:1048E000AF049091B00423E041E00E945131B8013F
:1048F000CE0141960E94341869E672E0C8010E9418
:104900003418BE016F5E7F4FC8010E94FF16FC0184
:104910004481558160817181CE0147960E94D316F2
:10492000C8010E94F40FCE0141960E94F40F8091BD
:10493000DF0465EC71E081FD02C06AEC71E0CE013C
:1049400041960E94341867E772E0CE0101960E94FA
:104950003418BE016F5E7F4FCE0101960E94FF1694
:10496000FC014481558160817181CE0147960E948E
:10497000D316CE0101960E94F40FCE0141960E94FB
:10498000F40F6F89788D6115710501F1FB010190BC
:104990000020E9F73197AF01461B570B83EB94E0FA
:1049A0000E9412178091DD0480628093DD04CE01A5
:1049B00047960E94F40F6C960FB6F894DEBF0FBEB8
:1049C000CDBFDF91CF911F910F91089583EB94E0BC
:1049D0000E94E20FE7CFEF92FF920F931F93CF93C6
:1049E000DF93CDB7DEB761970FB6F894DEBF0FBE89
:1049F000CDBF8C01FB0185811F928F9384811F9213
:104A00008F9383811F928F9382811F928F938FE761
:104A100092E09F938F93CE0101967C019F938F9399
:104A20000E940139B701C8010E9434180FB6F894EA
:104A3000DEBF0FBECDBFC80161960FB6F894DEBFD2
:104A40000FBECDBFDF91CF911F910F91FF90EF90DF
:104A500008952F923F924F925F926F927F928F9222
:104A60009F92AF92BF92CF92DF92EF92FF920F93FD
:104A70001F93CF93DF93CDB7DEB767970FB6F89448
:104A8000DEBF0FBECDBF8091DD0481608093DD0469
:104A90001D861E861F86188A198A1A8A80918804A4
:104AA00090918904009711F00E94953786E690E076
:104AB0000E94F93626E6DC011D922A95E9F7FC01F1
:104AC000E55BFF4F1382128248EE53E060E070E036
:104AD00044835583668377832AE131E031832083E1
:104AE00028E024873F962AEB31E03183208312822D
:104AF0001382148215829093890480938804109104
:104B00008A041093030368EE73E080E090E00E9453
:104B1000ED0261E0812F0E9497020E94D90860E0B7
:104B200090E080E00E947203482F406864E090E0CB
:104B300080E00E94C3031CE058E0E52EF12C42E027
:104B4000612F8EE190E00E94C30342E0612F8FE16C
:104B500090E00E94C303B1E0EB1AF108105EE1148B
:104B6000F10469F726E030E0AE01435F5F4F64E097
:104B700089E090E00E9491038AEB91E09A83898317
:104B80001B821C821D821E8224E030E0AE014D5F3C
:104B90005F4F64E08FE090E00E94910300918804F1
:104BA00010918904F80116A217A210A611A612A648
:104BB00013A614A615A616A617A610AA11AA12AE19
:104BC00013AE14AE15AE1801BEE32B0E311C80E6F9
:104BD0009AEEA0E0B0E0F10180839183A283B383D9
:104BE000C8018E5B9F4F9F8B8E8B88E893E1A0E07E
:104BF000B0E0EE89FF8980839183A283B383F801BB
:104C00003E9684E1DF011D928A95E9F786E0FE0178
:104C10003D96D801189601900D928A95E1F7F8011A
:104C2000E65BFF4FFC8BEB8B10820E94BB312FECBD
:104C300037E040E050E00E946E35DC01CB01019688
:104C4000A11DB11DF80184839583A683B78380835A
:104C50009183A283B3835801FBE4AF0EB11CC5015D
:104C60000E94FC0464E470E0C5010E94A707882349
:104C700009F4BBC00E941F032B013C0148EEC42E67
:104C800043E0D42EE12CF12C912C812CAB89BC89F2
:104C90008C918330A9F181113DC1F8018481958106
:104CA000A681B7810196A11DB11D84839583A6833A
:104CB000B7830E941F036419750986099709A70124
:104CC00096010E94D735A90161E0C8010E94E42243
:104CD00081E0AB89BC898C93F1E08F169104B1F22D
:104CE0000E941F036419750986099709D1012D9146
:104CF0003D914D915C91261737074807590720F6DB
:104D0000C5010E94FC04F80184819581A681B781C8
:104D10000196A11DB11D84839583A683B7838A94D0
:104D2000892809F062C06091880470918904625FEB
:104D30007F4FCE0101960E94701224E030E0AE0158
:104D40004D5F5F4F64E08FE090E00E9491036091BF
:104D5000880470918904665E7F4FCE0101960E949F
:104D6000701224E030E0AE014D5F5F4F64E081E0FF
:104D700090E00E94910360918804709189046A5EBA
:104D80007F4FCE0101960E94701224E030E0AE0108
:104D90004D5F5F4F64E085E090E00E949103609179
:104DA0008804709189046E5D7F4FCE0101960E9448
:104DB00070128B819C81AD81BE8180938004909321
:104DC0008104A0938204B0938304E0918804F0915D
:104DD00089048289938990938504809384048489CB
:104DE000958990938704809386040AEB11E01A83D7
:104DF00009831B821C821D821E8224E030E0AE01EA
:104E00004D5F5F4F60E081E090E00E944003BE0193
:104E10006F5F7F4FCE0107960E94EB24CE0107966D
:104E20000E94A70FCE0107960E94F40F1A830983F0
:104E30008091800490918104A0918204B0918304B8
:104E40008B839C83AD83BE83BE016F5F7F4FCE019A
:104E500007960E94EB24CE0107960E94A70FCE0171
:104E600007960E94F40F1A8309831B821C821D82FD
:104E70001E8224E030E0AE014D5F5F4F60E085E0D0
:104E800090E00E944003BE016F5F7F4FCE01079606
:104E90000E94EB24CE0107960E94A70FCE01079631
:104EA0000E94F40F1A8309831B821C821D821E82BA
:104EB00024E030E0AE014D5F5F4F60E08FE090E0B6
:104EC0000E944003BE016F5F7F4FCE0107960E9494
:104ED000EB24CE0107960E94A70FCE0107960E94F1
:104EE000F40F67960FB6F894DEBF0FBECDBFDF910B
:104EF000CF911F910F91FF90EF90DF90CF90BF90D7
:104F0000AF909F908F907F906F905F904F903F9069
:104F10002F900895843001F5F80184819581A68150
:104F2000B7810196A11DB11D84839583A683B783A4
:104F30000E941F036419750986099709A701960144
:104F40000E94D735A90163E0C8010E94E422E2E093
:104F5000AB89BC89EC93C0CE813051F5AE89BF8955
:104F60004D915D916D917C919E012F5F3F4FC801E6
:104F70000E94E5208D8B823009F086C089819A815C
:104F8000AB81BC81F80184839583A683B7830E949B
:104F90001F036419750986099709A70196010E94E4
:104FA000D735A90163E0C8010E94E422ED89D0CF82
:104FB000823009F091CEAE89BF894D915D916D919E
:104FC0007C919E012F5F3F4FC8010E94E5208D8B91
:104FD000853009F052C083E0EB89FC898083F801B9
:104FE00086A197A1A0A5B1A5892B8A2B8B2B41F473
:104FF00084E893E0A0E0B0E086A397A3A0A7B1A7C0
:10500000F80182A593A5A4A5B5A5892B8A2B8B2B86
:1050100061F486A197A1A0A5B1A5B695A79597958E
:10502000879582A793A7A4A7B5A7F80182A593A502
:10503000A4A5B5A546A557A560A971A9452B462BE2
:10504000472B51F4AC01BD01440F551F661F771F5C
:1050500046A757A760AB71ABF80182AB93ABA4AB8B
:10506000B5AB86A597A5A0A9B1A986AB97ABA0AF14
:10507000B1AF88248394912C2FCEFD89F63021F492
:10508000AB89BC891C9228CEBD89BF3F09F024CED4
:10509000EB89FC89108220CE1F920F920FB60F92DF
:1050A00011242F933F934F935F936F937F938F932D
:1050B0009F93AF93BF93EF93FF9387EC93E00E948E
:1050C000B101FF91EF91BF91AF919F918F917F912E
:1050D0006F915F914F913F912F910F900FBE0F9065
:1050E0001F9018951F920F920FB60F9211242F93B5
:1050F0008F939F93EF93FF93E091D703F091D803A1
:105100008081E091DD03F091DE0382FD1BC0908180
:105110008091E0038F5F8F732091E103821741F04C
:10512000E091E003F0E0E953FC4F958F8093E003BA
:10513000FF91EF919F918F912F910F900FBE0F9044
:105140001F9018958081F4CF1F920F920FB60F9287
:1051500011242F933F938F939F93AF93BF9380918D
:10516000050390910603A0910703B09108033091C5
:10517000040323E0230F2D3758F50196A11DB11D1F
:10518000209304038093050390930603A0930703E1
:10519000B09308038091090390910A03A0910B0337
:1051A000B0910C030196A11DB11D8093090390934A
:1051B0000A03A0930B03B0930C03BF91AF919F918F
:1051C0008F913F912F910F900FBE0F901F901895C8
:1051D00026E8230F0296A11DB11DD2CF1F920F9278
:1051E0000FB60F9211242F933F934F935F936F93BA
:1051F0007F938F939F93AF93BF93EF93FF93809190
:10520000B900887F803609F44AC0F0F5883209F485
:10521000A7C018F5803109F49BC0B8F4882309F4BD
:10522000F9C0883009F494C0FF91EF91BF91AF911C
:105230009F918F917F916F915F914F913F912F91AE
:105240000F900FBE0F901F901895883109F488C0F9
:10525000803251F78093990314C0803409F49DC0C3
:1052600040F48033B9F38833F9F68093990385ECE1
:10527000B0C0803509F485C0883509F496C08834FB
:1052800099F60E94F223D0CF883909F48CC038F502
:10529000883729F050F4883611F0803729F683E0FA
:1052A00080939B031092010357C0883809F47BC098
:1052B000803919F0803809F0B7CF8091010380322E
:1052C00008F071C0E091010381E08E0F809301032B
:1052D0008091BB00F0E0EF51FD4F80833DC0803BEB
:1052E00039F0E0F4803A09F479C0883A09F09CCFAB
:1052F00084E080939B031092E0021092DF02E09121
:105300000F03F091100309958091DF0281110FC006
:1053100081E08093DF021092BF0209C0803C09F453
:10532000A6CF883C09F4A3CF883B09F07DCFE0915C
:10533000E00281E08E0F8093E002F0E0E154FD4F47
:1053400080818093BB009091E0028091DF0229C0B0
:10535000809176038093BB0085EC8093BC0064CF82
:105360009091980380919703981758F5E0919803CE
:1053700081E08E0F80939803F0E0E958FC4F808124
:10538000E9CFE091980381E08E0F8093980380919C
:10539000BB00F0E0E958FC4F808390919803809126
:1053A00097039817C8F285E8D8CFE091980381E079
:1053B0008E0F809398038091BB00F0E0E958FC4F7A
:1053C000808380919A0381115CCF81E08093750383
:1053D00084EA8093BC0010929B0326CF85EC8093D7
:1053E000BC0010929B0380910103803230F4E09165
:1053F0000103F0E0EF51FD4F10826091010370E076
:10540000E0910D03F0910E0381EE92E00995109268
:1054100001030ACF1092990334CF8F929F92AF92DB
:10542000BF92EF92FF920F931F93CF93DF9300D021
:1054300000D000D0CDB7DEB7E7ECF3E013821282E4
:1054400088EE882E83E0982EA12CB12C8482958240
:10545000A682B78284E791E09183808385EC90E017
:105460009587848784EC90E09787868780EC90E02E
:10547000918B808B81EC90E0938B828B82EC90E01F
:10548000958B848B86EC90E0978B868B118E128E99
:10549000138E148EE4E6F4E080E5808381E081835E
:1054A000E6E6F4E08AEB91E0918380831282138236
:1054B00014821582ECE6F4E09183808312821382D9
:1054C00014821582E2E7F4E09183808312821382D2
:1054D00014821582E8E7F4E09183808312821382BC
:1054E00014821582EBE8F4E09183808312821382A8
:1054F00014821582EEE7F4E0918380831282138296
:1055000014821582138612862AE02487E1E9F4E0EA
:10551000918380831282138214821582E7E9F4E07A
:10552000918380831282138214821582EDE9F4E064
:105530001382128284829582A682B78226E831E0A5
:1055400031832083E6EEF4E091838083128213821C
:105550001482158261E083E00E94970260E080E09F
:105560000E94690261E086E00E94970260E080E0AC
:105570000E94690280EC91E09093E5048093E4043A
:105580000DED14E0F80180818E7F80839CECE92E84
:1055900094E0F92EF7011382128284829582A6820A
:1055A000B78288E991E09183808388E084870E94B4
:1055B0001F03605A75418F4F9F4FF70165877687AC
:1055C0008787908BF8018081E9EBF4E011821082EB
:1055D000128214821382158216821782108621E0AD
:1055E00030E0328B218B837F8F7EF801808364ECE7
:1055F00071E083EB94E00E94341850E040E064ECEA
:1056000071E083EB94E00E941217F80180818F73A0
:1056100080628083EEEDF4E08081887C8160886028
:1056200080831092AD041092AE041092AF041092D9
:10563000B0041092A9041092AA041092AB04109224
:10564000AC04EFEDF4E080818D78808361E082E04E
:105650000E94970261E084E00E94970261E087E087
:105660000E94970264EC71E0CE0101960E9434180A
:1056700000EE14E0F80180818B7F8083CE010196DB
:105680000E94F40F64EC71E0CE0101960E94341880
:10569000F80180818F7E8083CE0101960E94F40FF5
:1056A00064EC71E0CE0101960E943418F80180810B
:1056B0008F7B8083CE0101960E94F40F64EC71E031
:1056C000CE0101960E94341801EE14E0F8018081A9
:1056D0008E7F8083CE0101960E94F40F64EC71E00E
:1056E000CE0101960E943418F80180818B7F80835F
:1056F000CE0101960E94F40F64EC71E0CE01019698
:105700000E943418F80180818F7E8083CE0101963B
:105710000E94F40FF80180818F7D8F7B808361E090
:1057200085E00E949702F80180818F778083109234
:10573000E204E3EEF4E080818E7F8D7F8083269605
:105740000FB6F894DEBF0FBECDBFDF91CF911F9192
:105750000F91FF90EF90BF90AF909F908F90089522
:10576000CF93DF93CDB7DEB767970FB6F894DEBF60
:105770000FBECDBF789484B5826084BD84B581604E
:1057800084BD85B5826085BD85B5816085BD80910C
:105790006E00816080936E00109281008091810084
:1057A000826080938100809181008160809381007C
:1057B000809180008160809380008091B10084603E
:1057C0008093B1008091B00081608093B00080919F
:1057D0007A00846080937A0080917A00826080935E
:1057E0007A0080917A00816080937A0080917A00BB
:1057F000806880937A001092C10010921203109278
:1058000011031092A2031092C4030E94360981E38F
:1058100091E09093100380930F0382E391E09093C3
:105820000E0380930D03E091D703F091D80382E03B
:105830008083E091D303F091D4031082E091D503EB
:10584000F091D6038FEC80831092DF03E091DB03AD
:10585000F091DC0386E08083E091D903F091DA03D4
:10586000808180618083E091D903F091DA038081A7
:1058700088608083E091D903F091DA0380818068A9
:105880008083E091D903F091DA0380818F7D80835A
:105890000E94D90860E08EE00E94970284EE94E0B6
:1058A0000E9429258091DD048D7F8093DD041B8A71
:1058B000CE0143960E94241A0E94C80260931B03E3
:1058C00070931C0380931D0390931E038091DF044B
:1058D000877F8093DF048091E10487FF03C08F7787
:1058E0008093E1040E94FD0C0E94C802609317039C
:1058F000709318038093190390931A038091DF0427
:1059000080688093DF048091E20480FD06C081609E
:105910008093E20481E00E942C0B0E94C8026093F5
:1059200013037093140380931503909316038091CF
:10593000E0048E7F8093E0048091E20481FF03C045
:105940008D7F8093E2048091E00482FD0AC08D7F08
:105950008093E0048091E20482FF03C08B7F8093F8
:10596000E2048091E00484FD0AC0877F8093E00414
:105970008091E20483FF03C0877F8093E2048091DB
:10598000E00486FD0AC08F7D8093E0048091E204EC
:1059900084FF03C08F7E8093E2048091E10480FD48
:1059A0000CC09091E0049F779093E0049091E20402
:1059B00095FF03C09F7D9093E20482FD0AC08D7F16
:1059C0008093E1048091E20486FF03C08F7B809383
:1059D000E2048091E10484FD0AC0877F8093E104A2
:1059E0008091E20487FF03C08F778093E204909157
:1059F000E10495FD07C08091E30480FF03C08E7F22
:105A00008093E30496FD07C08091E30481FF03C007
:105A10008D7F8093E3048E010F5F1F4F33243394F7
:105A200022242394E6EBF1E08491E2EAF1E0E490B1
:105A3000EEE8F1E0F490F11098C0F12C60E086E01F
:105A40000E9469028091DF0481FB992790F99F15DC
:105A500021F0F0FA81F98093DF048091DD0480FF6A
:105A60003DC082FD3BC00E941F03C090D904D0906E
:105A7000DA04E090DB04F090DC046C197D098E09F7
:105A80009F0960367A4E8105910540F16BE872E01E
:105A9000C8010E943418ED80FE80C8010E94F40FF6
:105AA000EF2891F04BE557E06BE872E08CEC94E066
:105AB0000E94CB1521E0892B09F420E08091DD04C0
:105AC00020FB82F98093DD040E941F036093D904B8
:105AD0007093DA048093DB049093DC0454E1E52EA8
